{
  "_format": "hh-sol-artifact-1",
  "contractName": "MyToken",
  "sourceName": "contracts/MyToken.sol",
  "abi": [
    {
      "inputs": [],
      "stateMutability": "nonpayable",
      "type": "constructor"
    },
    {
      "inputs": [],
      "name": "ERC721EnumerableForbiddenBatchMint",
      "type": "error"
    },
    {
      "inputs": [
        {
          "internalType": "address",
          "name": "sender",
          "type": "address"
        },
        {
          "internalType": "uint256",
          "name": "tokenId",
          "type": "uint256"
        },
        {
          "internalType": "address",
          "name": "owner",
          "type": "address"
        }
      ],
      "name": "ERC721IncorrectOwner",
      "type": "error"
    },
    {
      "inputs": [
        {
          "internalType": "address",
          "name": "operator",
          "type": "address"
        },
        {
          "internalType": "uint256",
          "name": "tokenId",
          "type": "uint256"
        }
      ],
      "name": "ERC721InsufficientApproval",
      "type": "error"
    },
    {
      "inputs": [
        {
          "internalType": "address",
          "name": "approver",
          "type": "address"
        }
      ],
      "name": "ERC721InvalidApprover",
      "type": "error"
    },
    {
      "inputs": [
        {
          "internalType": "address",
          "name": "operator",
          "type": "address"
        }
      ],
      "name": "ERC721InvalidOperator",
      "type": "error"
    },
    {
      "inputs": [
        {
          "internalType": "address",
          "name": "owner",
          "type": "address"
        }
      ],
      "name": "ERC721InvalidOwner",
      "type": "error"
    },
    {
      "inputs": [
        {
          "internalType": "address",
          "name": "receiver",
          "type": "address"
        }
      ],
      "name": "ERC721InvalidReceiver",
      "type": "error"
    },
    {
      "inputs": [
        {
          "internalType": "address",
          "name": "sender",
          "type": "address"
        }
      ],
      "name": "ERC721InvalidSender",
      "type": "error"
    },
    {
      "inputs": [
        {
          "internalType": "uint256",
          "name": "tokenId",
          "type": "uint256"
        }
      ],
      "name": "ERC721NonexistentToken",
      "type": "error"
    },
    {
      "inputs": [
        {
          "internalType": "address",
          "name": "owner",
          "type": "address"
        },
        {
          "internalType": "uint256",
          "name": "index",
          "type": "uint256"
        }
      ],
      "name": "ERC721OutOfBoundsIndex",
      "type": "error"
    },
    {
      "inputs": [
        {
          "internalType": "address",
          "name": "owner",
          "type": "address"
        }
      ],
      "name": "OwnableInvalidOwner",
      "type": "error"
    },
    {
      "inputs": [
        {
          "internalType": "address",
          "name": "account",
          "type": "address"
        }
      ],
      "name": "OwnableUnauthorizedAccount",
      "type": "error"
    },
    {
      "anonymous": false,
      "inputs": [
        {
          "indexed": true,
          "internalType": "address",
          "name": "owner",
          "type": "address"
        },
        {
          "indexed": true,
          "internalType": "address",
          "name": "approved",
          "type": "address"
        },
        {
          "indexed": true,
          "internalType": "uint256",
          "name": "tokenId",
          "type": "uint256"
        }
      ],
      "name": "Approval",
      "type": "event"
    },
    {
      "anonymous": false,
      "inputs": [
        {
          "indexed": true,
          "internalType": "address",
          "name": "owner",
          "type": "address"
        },
        {
          "indexed": true,
          "internalType": "address",
          "name": "operator",
          "type": "address"
        },
        {
          "indexed": false,
          "internalType": "bool",
          "name": "approved",
          "type": "bool"
        }
      ],
      "name": "ApprovalForAll",
      "type": "event"
    },
    {
      "anonymous": false,
      "inputs": [
        {
          "indexed": true,
          "internalType": "address",
          "name": "previousOwner",
          "type": "address"
        },
        {
          "indexed": true,
          "internalType": "address",
          "name": "newOwner",
          "type": "address"
        }
      ],
      "name": "OwnershipTransferred",
      "type": "event"
    },
    {
      "anonymous": false,
      "inputs": [
        {
          "indexed": true,
          "internalType": "address",
          "name": "from",
          "type": "address"
        },
        {
          "indexed": true,
          "internalType": "address",
          "name": "to",
          "type": "address"
        },
        {
          "indexed": true,
          "internalType": "uint256",
          "name": "tokenId",
          "type": "uint256"
        }
      ],
      "name": "Transfer",
      "type": "event"
    },
    {
      "inputs": [
        {
          "internalType": "address",
          "name": "to",
          "type": "address"
        },
        {
          "internalType": "uint256",
          "name": "tokenId",
          "type": "uint256"
        }
      ],
      "name": "approve",
      "outputs": [],
      "stateMutability": "nonpayable",
      "type": "function"
    },
    {
      "inputs": [
        {
          "internalType": "address",
          "name": "owner",
          "type": "address"
        }
      ],
      "name": "balanceOf",
      "outputs": [
        {
          "internalType": "uint256",
          "name": "",
          "type": "uint256"
        }
      ],
      "stateMutability": "view",
      "type": "function"
    },
    {
      "inputs": [
        {
          "internalType": "uint256",
          "name": "tokenId",
          "type": "uint256"
        }
      ],
      "name": "getApproved",
      "outputs": [
        {
          "internalType": "address",
          "name": "",
          "type": "address"
        }
      ],
      "stateMutability": "view",
      "type": "function"
    },
    {
      "inputs": [
        {
          "internalType": "address",
          "name": "owner",
          "type": "address"
        },
        {
          "internalType": "address",
          "name": "operator",
          "type": "address"
        }
      ],
      "name": "isApprovedForAll",
      "outputs": [
        {
          "internalType": "bool",
          "name": "",
          "type": "bool"
        }
      ],
      "stateMutability": "view",
      "type": "function"
    },
    {
      "inputs": [],
      "name": "name",
      "outputs": [
        {
          "internalType": "string",
          "name": "",
          "type": "string"
        }
      ],
      "stateMutability": "view",
      "type": "function"
    },
    {
      "inputs": [],
      "name": "owner",
      "outputs": [
        {
          "internalType": "address",
          "name": "",
          "type": "address"
        }
      ],
      "stateMutability": "view",
      "type": "function"
    },
    {
      "inputs": [
        {
          "internalType": "uint256",
          "name": "tokenId",
          "type": "uint256"
        }
      ],
      "name": "ownerOf",
      "outputs": [
        {
          "internalType": "address",
          "name": "",
          "type": "address"
        }
      ],
      "stateMutability": "view",
      "type": "function"
    },
    {
      "inputs": [],
      "name": "publicMint",
      "outputs": [],
      "stateMutability": "payable",
      "type": "function"
    },
    {
      "inputs": [],
      "name": "renounceOwnership",
      "outputs": [],
      "stateMutability": "nonpayable",
      "type": "function"
    },
    {
      "inputs": [
        {
          "internalType": "address",
          "name": "from",
          "type": "address"
        },
        {
          "internalType": "address",
          "name": "to",
          "type": "address"
        },
        {
          "internalType": "uint256",
          "name": "tokenId",
          "type": "uint256"
        }
      ],
      "name": "safeTransferFrom",
      "outputs": [],
      "stateMutability": "nonpayable",
      "type": "function"
    },
    {
      "inputs": [
        {
          "internalType": "address",
          "name": "from",
          "type": "address"
        },
        {
          "internalType": "address",
          "name": "to",
          "type": "address"
        },
        {
          "internalType": "uint256",
          "name": "tokenId",
          "type": "uint256"
        },
        {
          "internalType": "bytes",
          "name": "data",
          "type": "bytes"
        }
      ],
      "name": "safeTransferFrom",
      "outputs": [],
      "stateMutability": "nonpayable",
      "type": "function"
    },
    {
      "inputs": [
        {
          "internalType": "address",
          "name": "operator",
          "type": "address"
        },
        {
          "internalType": "bool",
          "name": "approved",
          "type": "bool"
        }
      ],
      "name": "setApprovalForAll",
      "outputs": [],
      "stateMutability": "nonpayable",
      "type": "function"
    },
    {
      "inputs": [
        {
          "internalType": "bytes4",
          "name": "interfaceId",
          "type": "bytes4"
        }
      ],
      "name": "supportsInterface",
      "outputs": [
        {
          "internalType": "bool",
          "name": "",
          "type": "bool"
        }
      ],
      "stateMutability": "view",
      "type": "function"
    },
    {
      "inputs": [],
      "name": "symbol",
      "outputs": [
        {
          "internalType": "string",
          "name": "",
          "type": "string"
        }
      ],
      "stateMutability": "view",
      "type": "function"
    },
    {
      "inputs": [
        {
          "internalType": "uint256",
          "name": "index",
          "type": "uint256"
        }
      ],
      "name": "tokenByIndex",
      "outputs": [
        {
          "internalType": "uint256",
          "name": "",
          "type": "uint256"
        }
      ],
      "stateMutability": "view",
      "type": "function"
    },
    {
      "inputs": [
        {
          "internalType": "address",
          "name": "owner",
          "type": "address"
        },
        {
          "internalType": "uint256",
          "name": "index",
          "type": "uint256"
        }
      ],
      "name": "tokenOfOwnerByIndex",
      "outputs": [
        {
          "internalType": "uint256",
          "name": "",
          "type": "uint256"
        }
      ],
      "stateMutability": "view",
      "type": "function"
    },
    {
      "inputs": [
        {
          "internalType": "uint256",
          "name": "tokenId",
          "type": "uint256"
        }
      ],
      "name": "tokenURI",
      "outputs": [
        {
          "internalType": "string",
          "name": "",
          "type": "string"
        }
      ],
      "stateMutability": "view",
      "type": "function"
    },
    {
      "inputs": [],
      "name": "totalSupply",
      "outputs": [
        {
          "internalType": "uint256",
          "name": "",
          "type": "uint256"
        }
      ],
      "stateMutability": "view",
      "type": "function"
    },
    {
      "inputs": [
        {
          "internalType": "address",
          "name": "from",
          "type": "address"
        },
        {
          "internalType": "address",
          "name": "to",
          "type": "address"
        },
        {
          "internalType": "uint256",
          "name": "tokenId",
          "type": "uint256"
        }
      ],
      "name": "transferFrom",
      "outputs": [],
      "stateMutability": "nonpayable",
      "type": "function"
    },
    {
      "inputs": [
        {
          "internalType": "address",
          "name": "newOwner",
          "type": "address"
        }
      ],
      "name": "transferOwnership",
      "outputs": [],
      "stateMutability": "nonpayable",
      "type": "function"
    },
    {
      "inputs": [
        {
          "internalType": "address",
          "name": "to",
          "type": "address"
        }
      ],
      "name": "withdraw",
      "outputs": [],
      "stateMutability": "nonpayable",
      "type": "function"
    }
  ],
  "bytecode": "0x6080604052601e600c553480156200001657600080fd5b50336040518060400160405280600781526020017f4d79546f6b656e000000000000000000000000000000000000000000000000008152506040518060400160405280600381526020017f4d544b0000000000000000000000000000000000000000000000000000000000815250816000908162000095919062000477565b508060019081620000a7919062000477565b505050600073ffffffffffffffffffffffffffffffffffffffff168173ffffffffffffffffffffffffffffffffffffffff16036200011f5760006040517f1e4fbdf7000000000000000000000000000000000000000000000000000000008152600401620001169190620005a3565b60405180910390fd5b62000130816200013760201b60201c565b50620005c0565b6000600a60009054906101000a900473ffffffffffffffffffffffffffffffffffffffff16905081600a60006101000a81548173ffffffffffffffffffffffffffffffffffffffff021916908373ffffffffffffffffffffffffffffffffffffffff1602179055508173ffffffffffffffffffffffffffffffffffffffff168173ffffffffffffffffffffffffffffffffffffffff167f8be0079c531659141344cd1fd0a4f28419497f9722a3daafe3b4186f6b6457e060405160405180910390a35050565b600081519050919050565b7f4e487b7100000000000000000000000000000000000000000000000000000000600052604160045260246000fd5b7f4e487b7100000000000000000000000000000000000000000000000000000000600052602260045260246000fd5b600060028204905060018216806200027f57607f821691505b60208210810362000295576200029462000237565b5b50919050565b60008190508160005260206000209050919050565b60006020601f8301049050919050565b600082821b905092915050565b600060088302620002ff7fffffffffffffffffffffffffffffffffffffffffffffffffffffffffffffffff82620002c0565b6200030b8683620002c0565b95508019841693508086168417925050509392505050565b6000819050919050565b6000819050919050565b600062000358620003526200034c8462000323565b6200032d565b62000323565b9050919050565b6000819050919050565b620003748362000337565b6200038c62000383826200035f565b848454620002cd565b825550505050565b600090565b620003a362000394565b620003b081848462000369565b505050565b5b81811015620003d857620003cc60008262000399565b600181019050620003b6565b5050565b601f8211156200042757620003f1816200029b565b620003fc84620002b0565b810160208510156200040c578190505b620004246200041b85620002b0565b830182620003b5565b50505b505050565b600082821c905092915050565b60006200044c600019846008026200042c565b1980831691505092915050565b600062000467838362000439565b9150826002028217905092915050565b6200048282620001fd565b67ffffffffffffffff8111156200049e576200049d62000208565b5b620004aa825462000266565b620004b7828285620003dc565b600060209050601f831160018114620004ef5760008415620004da578287015190505b620004e6858262000459565b86555062000556565b601f198416620004ff866200029b565b60005b82811015620005295784890151825560018201915060208501945060208101905062000502565b8683101562000549578489015162000545601f89168262000439565b8355505b6001600288020188555050505b505050505050565b600073ffffffffffffffffffffffffffffffffffffffff82169050919050565b60006200058b826200055e565b9050919050565b6200059d816200057e565b82525050565b6000602082019050620005ba600083018462000592565b92915050565b612b5e80620005d06000396000f3fe60806040526004361061012a5760003560e01c806351cff8d9116100ab57806395d89b411161006f57806395d89b41146103e3578063a22cb4651461040e578063b88d4fde14610437578063c87b56dd14610460578063e985e9c51461049d578063f2fde38b146104da5761012a565b806351cff8d9146102fe5780636352211e1461032757806370a0823114610364578063715018a6146103a15780638da5cb5b146103b85761012a565b806323b872dd116100f257806323b872dd1461022857806326092b83146102515780632f745c591461025b57806342842e0e146102985780634f6ccce7146102c15761012a565b806301ffc9a71461012f57806306fdde031461016c578063081812fc14610197578063095ea7b3146101d457806318160ddd146101fd575b600080fd5b34801561013b57600080fd5b506101566004803603810190610151919061215f565b610503565b60405161016391906121a7565b60405180910390f35b34801561017857600080fd5b50610181610515565b60405161018e9190612252565b60405180910390f35b3480156101a357600080fd5b506101be60048036038101906101b991906122aa565b6105a7565b6040516101cb9190612318565b60405180910390f35b3480156101e057600080fd5b506101fb60048036038101906101f6919061235f565b6105c3565b005b34801561020957600080fd5b506102126105d9565b60405161021f91906123ae565b60405180910390f35b34801561023457600080fd5b5061024f600480360381019061024a91906123c9565b6105e6565b005b6102596106e8565b005b34801561026757600080fd5b50610282600480360381019061027d919061235f565b6107a4565b60405161028f91906123ae565b60405180910390f35b3480156102a457600080fd5b506102bf60048036038101906102ba91906123c9565b61084d565b005b3480156102cd57600080fd5b506102e860048036038101906102e391906122aa565b61086d565b6040516102f591906123ae565b60405180910390f35b34801561030a57600080fd5b506103256004803603810190610320919061241c565b6108e3565b005b34801561033357600080fd5b5061034e600480360381019061034991906122aa565b61093b565b60405161035b9190612318565b60405180910390f35b34801561037057600080fd5b5061038b6004803603810190610386919061241c565b61094d565b60405161039891906123ae565b60405180910390f35b3480156103ad57600080fd5b506103b6610a07565b005b3480156103c457600080fd5b506103cd610a1b565b6040516103da9190612318565b60405180910390f35b3480156103ef57600080fd5b506103f8610a45565b6040516104059190612252565b60405180910390f35b34801561041a57600080fd5b5061043560048036038101906104309190612475565b610ad7565b005b34801561044357600080fd5b5061045e600480360381019061045991906125ea565b610aed565b005b34801561046c57600080fd5b50610487600480360381019061048291906122aa565b610b0a565b6040516104949190612252565b60405180910390f35b3480156104a957600080fd5b506104c460048036038101906104bf919061266d565b610b73565b6040516104d191906121a7565b60405180910390f35b3480156104e657600080fd5b5061050160048036038101906104fc919061241c565b610c07565b005b600061050e82610c8d565b9050919050565b606060008054610524906126dc565b80601f0160208091040260200160405190810160405280929190818152602001828054610550906126dc565b801561059d5780601f106105725761010080835404028352916020019161059d565b820191906000526020600020905b81548152906001019060200180831161058057829003601f168201915b5050505050905090565b60006105b282610d07565b506105bc82610d8f565b9050919050565b6105d582826105d0610dcc565b610dd4565b5050565b6000600880549050905090565b600073ffffffffffffffffffffffffffffffffffffffff168273ffffffffffffffffffffffffffffffffffffffff16036106585760006040517f64a0ae9200000000000000000000000000000000000000000000000000000000815260040161064f9190612318565b60405180910390fd5b600061066c8383610667610dcc565b610de6565b90508373ffffffffffffffffffffffffffffffffffffffff168173ffffffffffffffffffffffffffffffffffffffff16146106e2578382826040517f64283d7b0000000000000000000000000000000000000000000000000000000081526004016106d99392919061270d565b60405180910390fd5b50505050565b662386f26fc100003414610731576040517f08c379a000000000000000000000000000000000000000000000000000000000815260040161072890612790565b60405180910390fd5b600c5461073c6105d9565b1061077c576040517f08c379a0000000000000000000000000000000000000000000000000000000008152600401610773906127fc565b60405180910390fd5b6000600b60008154809291906107919061284b565b9190505590506107a13382610dfc565b50565b60006107af8361094d565b82106107f45782826040517fa57d13dc0000000000000000000000000000000000000000000000000000000081526004016107eb929190612893565b60405180910390fd5b600660008473ffffffffffffffffffffffffffffffffffffffff1673ffffffffffffffffffffffffffffffffffffffff168152602001908152602001600020600083815260200190815260200160002054905092915050565b61086883838360405180602001604052806000815250610aed565b505050565b60006108776105d9565b82106108bd576000826040517fa57d13dc0000000000000000000000000000000000000000000000000000000081526004016108b4929190612893565b60405180910390fd5b600882815481106108d1576108d06128bc565b5b90600052602060002001549050919050565b6108eb610e1a565b60004790508173ffffffffffffffffffffffffffffffffffffffff166108fc829081150290604051600060405180830381858888f19350505050158015610936573d6000803e3d6000fd5b505050565b600061094682610d07565b9050919050565b60008073ffffffffffffffffffffffffffffffffffffffff168273ffffffffffffffffffffffffffffffffffffffff16036109c05760006040517f89c62b640000000000000000000000000000000000000000000000000000000081526004016109b79190612318565b60405180910390fd5b600360008373ffffffffffffffffffffffffffffffffffffffff1673ffffffffffffffffffffffffffffffffffffffff168152602001908152602001600020549050919050565b610a0f610e1a565b610a196000610ea1565b565b6000600a60009054906101000a900473ffffffffffffffffffffffffffffffffffffffff16905090565b606060018054610a54906126dc565b80601f0160208091040260200160405190810160405280929190818152602001828054610a80906126dc565b8015610acd5780601f10610aa257610100808354040283529160200191610acd565b820191906000526020600020905b815481529060010190602001808311610ab057829003601f168201915b5050505050905090565b610ae9610ae2610dcc565b8383610f67565b5050565b610af88484846105e6565b610b04848484846110d6565b50505050565b6060610b1582610d07565b506000610b2061128d565b90506000815111610b405760405180602001604052806000815250610b6b565b80610b4a846112ad565b604051602001610b5b929190612927565b6040516020818303038152906040525b915050919050565b6000600560008473ffffffffffffffffffffffffffffffffffffffff1673ffffffffffffffffffffffffffffffffffffffff16815260200190815260200160002060008373ffffffffffffffffffffffffffffffffffffffff1673ffffffffffffffffffffffffffffffffffffffff16815260200190815260200160002060009054906101000a900460ff16905092915050565b610c0f610e1a565b600073ffffffffffffffffffffffffffffffffffffffff168173ffffffffffffffffffffffffffffffffffffffff1603610c815760006040517f1e4fbdf7000000000000000000000000000000000000000000000000000000008152600401610c789190612318565b60405180910390fd5b610c8a81610ea1565b50565b60007f780e9d63000000000000000000000000000000000000000000000000000000007bffffffffffffffffffffffffffffffffffffffffffffffffffffffff1916827bffffffffffffffffffffffffffffffffffffffffffffffffffffffff19161480610d005750610cff8261137b565b5b9050919050565b600080610d138361145d565b9050600073ffffffffffffffffffffffffffffffffffffffff168173ffffffffffffffffffffffffffffffffffffffff1603610d8657826040517f7e273289000000000000000000000000000000000000000000000000000000008152600401610d7d91906123ae565b60405180910390fd5b80915050919050565b60006004600083815260200190815260200160002060009054906101000a900473ffffffffffffffffffffffffffffffffffffffff169050919050565b600033905090565b610de1838383600161149a565b505050565b6000610df384848461165f565b90509392505050565b610e1682826040518060200160405280600081525061177c565b5050565b610e22610dcc565b73ffffffffffffffffffffffffffffffffffffffff16610e40610a1b565b73ffffffffffffffffffffffffffffffffffffffff1614610e9f57610e63610dcc565b6040517f118cdaa7000000000000000000000000000000000000000000000000000000008152600401610e969190612318565b60405180910390fd5b565b6000600a60009054906101000a900473ffffffffffffffffffffffffffffffffffffffff16905081600a60006101000a81548173ffffffffffffffffffffffffffffffffffffffff021916908373ffffffffffffffffffffffffffffffffffffffff1602179055508173ffffffffffffffffffffffffffffffffffffffff168173ffffffffffffffffffffffffffffffffffffffff167f8be0079c531659141344cd1fd0a4f28419497f9722a3daafe3b4186f6b6457e060405160405180910390a35050565b600073ffffffffffffffffffffffffffffffffffffffff168273ffffffffffffffffffffffffffffffffffffffff1603610fd857816040517f5b08ba18000000000000000000000000000000000000000000000000000000008152600401610fcf9190612318565b60405180910390fd5b80600560008573ffffffffffffffffffffffffffffffffffffffff1673ffffffffffffffffffffffffffffffffffffffff16815260200190815260200160002060008473ffffffffffffffffffffffffffffffffffffffff1673ffffffffffffffffffffffffffffffffffffffff16815260200190815260200160002060006101000a81548160ff0219169083151502179055508173ffffffffffffffffffffffffffffffffffffffff168373ffffffffffffffffffffffffffffffffffffffff167f17307eab39ab6107e8899845ad3d59bd9653f200f220920489ca2b5937696c31836040516110c991906121a7565b60405180910390a3505050565b60008373ffffffffffffffffffffffffffffffffffffffff163b1115611287578273ffffffffffffffffffffffffffffffffffffffff1663150b7a0261111a610dcc565b8685856040518563ffffffff1660e01b815260040161113c94939291906129a0565b6020604051808303816000875af192505050801561117857506040513d601f19601f820116820180604052508101906111759190612a01565b60015b6111fc573d80600081146111a8576040519150601f19603f3d011682016040523d82523d6000602084013e6111ad565b606091505b5060008151036111f457836040517f64a0ae920000000000000000000000000000000000000000000000000000000081526004016111eb9190612318565b60405180910390fd5b805181602001fd5b63150b7a0260e01b7bffffffffffffffffffffffffffffffffffffffffffffffffffffffff1916817bffffffffffffffffffffffffffffffffffffffffffffffffffffffff19161461128557836040517f64a0ae9200000000000000000000000000000000000000000000000000000000815260040161127c9190612318565b60405180910390fd5b505b50505050565b60606040518060a0016040528060688152602001612ac160689139905090565b6060600060016112bc84611798565b01905060008167ffffffffffffffff8111156112db576112da6124bf565b5b6040519080825280601f01601f19166020018201604052801561130d5781602001600182028036833780820191505090505b509050600082602001820190505b600115611370578080600190039150507f3031323334353637383961626364656600000000000000000000000000000000600a86061a8153600a858161136457611363612a2e565b5b0494506000850361131b575b819350505050919050565b60007f80ac58cd000000000000000000000000000000000000000000000000000000007bffffffffffffffffffffffffffffffffffffffffffffffffffffffff1916827bffffffffffffffffffffffffffffffffffffffffffffffffffffffff1916148061144657507f5b5e139f000000000000000000000000000000000000000000000000000000007bffffffffffffffffffffffffffffffffffffffffffffffffffffffff1916827bffffffffffffffffffffffffffffffffffffffffffffffffffffffff1916145b806114565750611455826118eb565b5b9050919050565b60006002600083815260200190815260200160002060009054906101000a900473ffffffffffffffffffffffffffffffffffffffff169050919050565b80806114d35750600073ffffffffffffffffffffffffffffffffffffffff168273ffffffffffffffffffffffffffffffffffffffff1614155b156116075760006114e384610d07565b9050600073ffffffffffffffffffffffffffffffffffffffff168373ffffffffffffffffffffffffffffffffffffffff161415801561154e57508273ffffffffffffffffffffffffffffffffffffffff168173ffffffffffffffffffffffffffffffffffffffff1614155b8015611561575061155f8184610b73565b155b156115a357826040517fa9fbf51f00000000000000000000000000000000000000000000000000000000815260040161159a9190612318565b60405180910390fd5b811561160557838573ffffffffffffffffffffffffffffffffffffffff168273ffffffffffffffffffffffffffffffffffffffff167f8c5be1e5ebec7d5bd14f71427d1e84f3dd0314c0f7b2291e5b200ac8c7c3b92560405160405180910390a45b505b836004600085815260200190815260200160002060006101000a81548173ffffffffffffffffffffffffffffffffffffffff021916908373ffffffffffffffffffffffffffffffffffffffff16021790555050505050565b60008061166d858585611955565b9050600073ffffffffffffffffffffffffffffffffffffffff168173ffffffffffffffffffffffffffffffffffffffff16036116b1576116ac84611b6f565b6116f0565b8473ffffffffffffffffffffffffffffffffffffffff168173ffffffffffffffffffffffffffffffffffffffff16146116ef576116ee8185611bb8565b5b5b600073ffffffffffffffffffffffffffffffffffffffff168573ffffffffffffffffffffffffffffffffffffffff16036117325761172d84611d19565b611771565b8473ffffffffffffffffffffffffffffffffffffffff168173ffffffffffffffffffffffffffffffffffffffff16146117705761176f8585611dea565b5b5b809150509392505050565b6117868383611e75565b61179360008484846110d6565b505050565b600080600090507a184f03e93ff9f4daa797ed6e38ed64bf6a1f01000000000000000083106117f6577a184f03e93ff9f4daa797ed6e38ed64bf6a1f01000000000000000083816117ec576117eb612a2e565b5b0492506040810190505b6d04ee2d6d415b85acef81000000008310611833576d04ee2d6d415b85acef8100000000838161182957611828612a2e565b5b0492506020810190505b662386f26fc10000831061186257662386f26fc10000838161185857611857612a2e565b5b0492506010810190505b6305f5e100831061188b576305f5e100838161188157611880612a2e565b5b0492506008810190505b61271083106118b05761271083816118a6576118a5612a2e565b5b0492506004810190505b606483106118d357606483816118c9576118c8612a2e565b5b0492506002810190505b600a83106118e2576001810190505b80915050919050565b60007f01ffc9a7000000000000000000000000000000000000000000000000000000007bffffffffffffffffffffffffffffffffffffffffffffffffffffffff1916827bffffffffffffffffffffffffffffffffffffffffffffffffffffffff1916149050919050565b6000806119618461145d565b9050600073ffffffffffffffffffffffffffffffffffffffff168373ffffffffffffffffffffffffffffffffffffffff16146119a3576119a2818486611f6e565b5b600073ffffffffffffffffffffffffffffffffffffffff168173ffffffffffffffffffffffffffffffffffffffff1614611a34576119e560008560008061149a565b6001600360008373ffffffffffffffffffffffffffffffffffffffff1673ffffffffffffffffffffffffffffffffffffffff168152602001908152602001600020600082825403925050819055505b600073ffffffffffffffffffffffffffffffffffffffff168573ffffffffffffffffffffffffffffffffffffffff1614611ab7576001600360008773ffffffffffffffffffffffffffffffffffffffff1673ffffffffffffffffffffffffffffffffffffffff168152602001908152602001600020600082825401925050819055505b846002600086815260200190815260200160002060006101000a81548173ffffffffffffffffffffffffffffffffffffffff021916908373ffffffffffffffffffffffffffffffffffffffff160217905550838573ffffffffffffffffffffffffffffffffffffffff168273ffffffffffffffffffffffffffffffffffffffff167fddf252ad1be2c89b69c2b068fc378daa952ba7f163c4a11628f55a4df523b3ef60405160405180910390a4809150509392505050565b6008805490506009600083815260200190815260200160002081905550600881908060018154018082558091505060019003906000526020600020016000909190919091505550565b6000611bc38361094d565b9050600060076000848152602001908152602001600020549050818114611ca8576000600660008673ffffffffffffffffffffffffffffffffffffffff1673ffffffffffffffffffffffffffffffffffffffff168152602001908152602001600020600084815260200190815260200160002054905080600660008773ffffffffffffffffffffffffffffffffffffffff1673ffffffffffffffffffffffffffffffffffffffff168152602001908152602001600020600084815260200190815260200160002081905550816007600083815260200190815260200160002081905550505b6007600084815260200190815260200160002060009055600660008573ffffffffffffffffffffffffffffffffffffffff1673ffffffffffffffffffffffffffffffffffffffff16815260200190815260200160002060008381526020019081526020016000206000905550505050565b60006001600880549050611d2d9190612a5d565b9050600060096000848152602001908152602001600020549050600060088381548110611d5d57611d5c6128bc565b5b906000526020600020015490508060088381548110611d7f57611d7e6128bc565b5b906000526020600020018190555081600960008381526020019081526020016000208190555060096000858152602001908152602001600020600090556008805480611dce57611dcd612a91565b5b6001900381819060005260206000200160009055905550505050565b60006001611df78461094d565b611e019190612a5d565b905081600660008573ffffffffffffffffffffffffffffffffffffffff1673ffffffffffffffffffffffffffffffffffffffff168152602001908152602001600020600083815260200190815260200160002081905550806007600084815260200190815260200160002081905550505050565b600073ffffffffffffffffffffffffffffffffffffffff168273ffffffffffffffffffffffffffffffffffffffff1603611ee75760006040517f64a0ae92000000000000000000000000000000000000000000000000000000008152600401611ede9190612318565b60405180910390fd5b6000611ef583836000610de6565b9050600073ffffffffffffffffffffffffffffffffffffffff168173ffffffffffffffffffffffffffffffffffffffff1614611f695760006040517f73c6ac6e000000000000000000000000000000000000000000000000000000008152600401611f609190612318565b60405180910390fd5b505050565b611f79838383612032565b61202d57600073ffffffffffffffffffffffffffffffffffffffff168373ffffffffffffffffffffffffffffffffffffffff1603611fee57806040517f7e273289000000000000000000000000000000000000000000000000000000008152600401611fe591906123ae565b60405180910390fd5b81816040517f177e802f000000000000000000000000000000000000000000000000000000008152600401612024929190612893565b60405180910390fd5b505050565b60008073ffffffffffffffffffffffffffffffffffffffff168373ffffffffffffffffffffffffffffffffffffffff16141580156120ea57508273ffffffffffffffffffffffffffffffffffffffff168473ffffffffffffffffffffffffffffffffffffffff1614806120ab57506120aa8484610b73565b5b806120e957508273ffffffffffffffffffffffffffffffffffffffff166120d183610d8f565b73ffffffffffffffffffffffffffffffffffffffff16145b5b90509392505050565b6000604051905090565b600080fd5b600080fd5b60007fffffffff0000000000000000000000000000000000000000000000000000000082169050919050565b61213c81612107565b811461214757600080fd5b50565b60008135905061215981612133565b92915050565b600060208284031215612175576121746120fd565b5b60006121838482850161214a565b91505092915050565b60008115159050919050565b6121a18161218c565b82525050565b60006020820190506121bc6000830184612198565b92915050565b600081519050919050565b600082825260208201905092915050565b60005b838110156121fc5780820151818401526020810190506121e1565b60008484015250505050565b6000601f19601f8301169050919050565b6000612224826121c2565b61222e81856121cd565b935061223e8185602086016121de565b61224781612208565b840191505092915050565b6000602082019050818103600083015261226c8184612219565b905092915050565b6000819050919050565b61228781612274565b811461229257600080fd5b50565b6000813590506122a48161227e565b92915050565b6000602082840312156122c0576122bf6120fd565b5b60006122ce84828501612295565b91505092915050565b600073ffffffffffffffffffffffffffffffffffffffff82169050919050565b6000612302826122d7565b9050919050565b612312816122f7565b82525050565b600060208201905061232d6000830184612309565b92915050565b61233c816122f7565b811461234757600080fd5b50565b60008135905061235981612333565b92915050565b60008060408385031215612376576123756120fd565b5b60006123848582860161234a565b925050602061239585828601612295565b9150509250929050565b6123a881612274565b82525050565b60006020820190506123c3600083018461239f565b92915050565b6000806000606084860312156123e2576123e16120fd565b5b60006123f08682870161234a565b93505060206124018682870161234a565b925050604061241286828701612295565b9150509250925092565b600060208284031215612432576124316120fd565b5b60006124408482850161234a565b91505092915050565b6124528161218c565b811461245d57600080fd5b50565b60008135905061246f81612449565b92915050565b6000806040838503121561248c5761248b6120fd565b5b600061249a8582860161234a565b92505060206124ab85828601612460565b9150509250929050565b600080fd5b600080fd5b7f4e487b7100000000000000000000000000000000000000000000000000000000600052604160045260246000fd5b6124f782612208565b810181811067ffffffffffffffff82111715612516576125156124bf565b5b80604052505050565b60006125296120f3565b905061253582826124ee565b919050565b600067ffffffffffffffff821115612555576125546124bf565b5b61255e82612208565b9050602081019050919050565b82818337600083830152505050565b600061258d6125888461253a565b61251f565b9050828152602081018484840111156125a9576125a86124ba565b5b6125b484828561256b565b509392505050565b600082601f8301126125d1576125d06124b5565b5b81356125e184826020860161257a565b91505092915050565b60008060008060808587031215612604576126036120fd565b5b60006126128782880161234a565b94505060206126238782880161234a565b935050604061263487828801612295565b925050606085013567ffffffffffffffff81111561265557612654612102565b5b612661878288016125bc565b91505092959194509250565b60008060408385031215612684576126836120fd565b5b60006126928582860161234a565b92505060206126a38582860161234a565b9150509250929050565b7f4e487b7100000000000000000000000000000000000000000000000000000000600052602260045260246000fd5b600060028204905060018216806126f457607f821691505b602082108103612707576127066126ad565b5b50919050565b60006060820190506127226000830186612309565b61272f602083018561239f565b61273c6040830184612309565b949350505050565b7f4e6f7420456e6f7567682046756e647300000000000000000000000000000000600082015250565b600061277a6010836121cd565b915061278582612744565b602082019050919050565b600060208201905081810360008301526127a98161276d565b9050919050565b7f43616e6e6f74204d696e74204d6f726500000000000000000000000000000000600082015250565b60006127e66010836121cd565b91506127f1826127b0565b602082019050919050565b60006020820190508181036000830152612815816127d9565b9050919050565b7f4e487b7100000000000000000000000000000000000000000000000000000000600052601160045260246000fd5b600061285682612274565b91507fffffffffffffffffffffffffffffffffffffffffffffffffffffffffffffffff82036128885761288761281c565b5b600182019050919050565b60006040820190506128a86000830185612309565b6128b5602083018461239f565b9392505050565b7f4e487b7100000000000000000000000000000000000000000000000000000000600052603260045260246000fd5b600081905092915050565b6000612901826121c2565b61290b81856128eb565b935061291b8185602086016121de565b80840191505092915050565b600061293382856128f6565b915061293f82846128f6565b91508190509392505050565b600081519050919050565b600082825260208201905092915050565b60006129728261294b565b61297c8185612956565b935061298c8185602086016121de565b61299581612208565b840191505092915050565b60006080820190506129b56000830187612309565b6129c26020830186612309565b6129cf604083018561239f565b81810360608301526129e18184612967565b905095945050505050565b6000815190506129fb81612133565b92915050565b600060208284031215612a1757612a166120fd565b5b6000612a25848285016129ec565b91505092915050565b7f4e487b7100000000000000000000000000000000000000000000000000000000600052601260045260246000fd5b6000612a6882612274565b9150612a7383612274565b9250828203905081811115612a8b57612a8a61281c565b5b92915050565b7f4e487b7100000000000000000000000000000000000000000000000000000000600052603160045260246000fdfe68747470733a2f2f79656c6c6f772d61636365737369626c652d6d617274656e2d3638322e6d7970696e6174612e636c6f75642f697066732f516d6354413734486d565a6b4439694d6f3163503934444a4e53714c755a355031454d77643466434862514e6a752fa26469706673582212201845efafcae54217ad37f16b00b4535c5618c55ead3a1f94e67db105adbf504864736f6c63430008140033",
  "linkReferences": {},
  "deployedLinkReferences": {}
}